:0400000080312428FF
:100008007E14803120007F08FC0014080B1D1F2877
:100018000B118330950001302100B1070030B23D4B
:100028000030B33D0030B43D0630FB007B08F000E3
:10003800B5308D31E8257C082000FF007E100900CE
:1000480080312628A0308400003085004530973163
:10005800EC27803120308400013085001230973140
:10006800EC277E1020009731F92F2000E001E101F4
:10007800C030AC004A30AD004430AE005B08A1008F
:100088005A08A0000F30A2000030A30089312121B6
:10009800803120002108A9002008A8008831DD202F
:1000A800803120002808AF002908B0002A08B100D4
:1000B80085319225803120002C08DD002D08DE00D6
:1000C8002E08DF005D08A0005E08A1005F08A200FE
:1000D8000030A3002030A4004130A5008B312B2331
:1000E80080310318ED2820005D08BF005E08C000BD
:1000F8005F08C1000030BC00C830BD004230BE00FF
:100108008431DE24803120003C08CC003D08CD003D
:100118003E08CE0087317827803120004D08E10065
:100128004C08E0000A30A8000030A9006430A000A4
:100138000030A1006108A3006008A2008A31BD2236
:10014800803120002108AB002008AA008A3134221F
:10015800803120002808DC005C08B90001308931B2
:100168005B2180310A302000A8000030A9000A3045
:10017800A0000030A1006108A3006008A2008A3135
:10018800BD22803120002108AB002008AA008A3156
:1001980034228031200028088038DC005C08B9004F
:1001A800023089315B2180310A302000A8000030FC
:1001B800A9006108AB006008AA008A3134228031A6
:1001C80020002808DC005C08B900033089315B2175
:1001D800080020005D08BF005E08C0005F08C1007D
:1001E8000030BC002030BD004130BE008431DE2428
:1001F800803120003C08CC003D08CD003E08CE00F0
:1002080087317827803120004D08E1004C08E00054
:100218000A30A8000030A9006430A0000030A10016
:100228006108A3006008A2008A31BD228031200045
:100238002108AB002008AA008A313422803120002E
:100248002808DC005C08B900013089315B21803165
:100258000A302000A8000030A9000A30A0000030B1
:10026800A1006108A3006008A2008A31BD22803184
:1002780020002108AB002008AA008A3134228031EE
:1002880020002808DC005C08B900023089315B21B5
:1002980080310A302000A8000030A9006108AB00B6
:1002A8006008AA008A313422803120002808DC0046
:1002B8005C08B900033089315B2108002000280858
:1002C800AE002908AF002A08B00003102F0D300D2A
:1002D800B1003108B4002B08AE002C08AF002D087F
:1002E800B00003102F0D300DB1003108B3003408F1
:1002F80003198A2933083402031891293403FF3A71
:100308003307AE0019302E02031C91292B08A800D0
:100318002C08A9002D08AA000800330803190800B2
:10032800340833020318A0293303FF3A3407AE0018
:1003380019302E02031808000630AE002E08B2004D
:10034800AA1BB217AD1B3217A917FF30A805FF303B
:10035800A9050030AA05AC17FF30AB05FF30AC0586
:100368000030AD05330834020318DC290130AB3501
:10037800AC0DAD0D890BBB290130B302330834062F
:100388000319D7290130B202320807390319D729CE
:10039800BA290130AA36A90CA80C890BCE2901303C
:1003A800AE002E08B407340833060319012ACD29F4
:1003B800340833020318012A0130A835A90DAA0D03
:1003C800890BE1290130B402330834060319FD29E9
:1003D8000130B202320807390319FD29E02901303A
:1003E800AD36AC0CAB0C890BF4290130AE002E08ED
:1003F800B30734083306031DF329B21F132AFF304D
:10040800A806FF30A906FF30AA060130A807003069
:1004180003180130A907003003180130AA07321F5A
:10042800252AFF30AB06FF30AC06FF30AD060130A1
:10043800AB07003003180130AC0700300318013057
:10044800AD07B2012808AB072908AC3D2A08AD3D25
:10045800AD1F402AFF30AB06FF30AC06FF30AD06BB
:100468000130AB07003003180130AC070030031827
:100478000130AD07B201B20A2B08A0002C08A10078
:100488002D08A2003408AE002E08A3003208AF00E1
:100498002F08A4008D31832520002008A8002108FA
:1004A800A9002208AA000800D5309731F227823126
:1004B800003A031908002000A001A00AD5308831AD
:1004C800C8208231210030080319C42A22080A3EB4
:1004D8002000E30000302100233D2000E40021003B
:1004E800290820006402031D7D2A21002808200015
:1004F800630203189E2ACD30B500CC30B6003D30DB
:10050800B7000D30A03E86008701403FB800413F4C
:10051800B900423FBA0089313D21823120003508B7
:100528002100AD00200036082100AE002000370869
:100538002100AF0021002208F63E2000E300FF3032
:100548002100233D2000E400640821002902031D46
:10055800B12A20006308210028020318E42ACD30BC
:100568002000A800CC30A9003D30AA000D30A03EE4
:1005780086008701403FAB00413FAC00423FD42A90
:10058800CD302000A800CC30A9003D30AA000D30A5
:10059800A03E86008701403FAB00413FAC00423F90
:1005A800AD00813162218231200028082100AD0090
:1005B800200029082100AE0020002A082100AF00F1
:1005C80000302000A000BE30A1004230A2000D3053
:1005D800A03E86008701403FA300413FA400423F60
:1005E800A5008B312B2382310318012B0030210009
:1005F800AD00BE30AE004230AF000D30A03E8600E8
:100608008701403F2000A000413FA100423FA200D7
:100618000030A300A030A4004030A5008B312B236C
:10062800823103181E2B00302100AD00A030AE002F
:100638004030AF00E8302000DA000330DB000D3036
:10064800A03E86008701403FDC00413FDD00423F7D
:10065800DE008F3166270800DD309731F2278331BD
:10066800003A031908002000A001A00ADD308831F3
:10067800C82083312000B901B90A0C3089315B21C7
:10068800833107302000E2006208B9000A3089315E
:100698005B2183313F302000E2006208B900093055
:1006A80089315B21833105302000E2006208B900FE
:1006B8000B3089315B21833121002C080319D92B98
:1006C80003308A310B228331200021082100A70042
:1006D800200020082100A60004308A310B22833133
:1006E800200021082100A900200020082100A800DE
:1006F80027082000DB00210026082000DA008031CE
:1007080039208331210029082000DB002100280836
:100718002000DA0086313B26833121003008200092
:10072800E200E3012100290820006302031DA02B39
:1007380021002808200062020318A72BA001D53049
:100748008831C820833121002208143E2000E200AD
:1007580000302100233D2000E3002100290820006B
:100768006302031DBB2B2100280820006202031C22
:10077800D22B21002208EC3E2000E200FF302100AD
:10078800233D2000E300630821002902031DD02B2C
:10079800200062082100280203180800D53088319B
:1007A80008202100B001B00A080002308A310B226B
:1007B8008331200021082100A50020002008210005
:1007C800A40001308A310B22833120002108210046
:1007D800A300200020082100A20025082000DB003B
:1007E800210024082000DA008031392083312100DB
:1007F80023082000DB00210022082000DA008631CF
:100808003B262100B00108008C31E5248431883171
:100818003620843188314D208431F4302000B500F1
:100828000130B6008B316723843190302000B50049
:100838000130B6008B31A42384318B1721001714A3
:100848000A302000A0000030A100A530A200083026
:10085800A300BD3089317A218431E8302000A0001E
:100868000330A1007730A2000830A300C5308931D9
:100878007A218431C8302000A0000030A100303037
:10088800A2000330A300DD3089317A218431F430AD
:100898002000A0000130A1008530A2000830A3008C
:1008A800CD3089317A2184310A302000A00000300F
:1008B800A1005830A2000230A300D53089317A2136
:1008C8008431BD30883108208431C5308831082012
:1008D8008431DD30883108208431CD3088310820DA
:1008E800843188312C2084312E302000A0000D3036
:1008F800A100BE30A2000930A300883194208431C1
:100908002000B901B90A0C3089315B2184310730E4
:100918002000C1004108B9000A3089315B218431C7
:100928003F302000C1004108B900093089315B21FE
:10093800843105302000C1004108B9000B308931ED
:100948005B2184310F302000C2000030C3004230E8
:10095800C1004108B90008308A31F22284310030E0
:100968002000C2000830C3004230C1004108B9006D
:1009780010308A31F222843142302000C10041080F
:10098800B90000308A31F222843142302000C1009F
:100998004108B90011308A31F222843142302000F6
:1009A800C1004108B90001308A31F222843189310D
:1009B800BE21080020003C08C2003D08C3003E08D4
:1009C800C4000310430D440DC5004508C600460881
:1009D800031DF52C0030BC000030BD000030BE0007
:1009E80008003F08C2004008C3004108C4000310C3
:1009F800430D440DC5004508CB004B08031D0B2DC6
:100A08000030BC000030BD000030BE0008004B08BC
:100A18007B3EC2004208C6073C08C2003D08C3002E
:100A28003E08C4001030C436C30CC20C890B172D05
:100A38004208C5004508CB003F08C2004008C30073
:100A48004108C4001030C436C30CC20C890B272DD2
:100A58004208C5004508CB068030C2004208CB05D5
:100A6800BD17C017FF30BF05FF30C0050030C105F6
:100A78000030C7000030C8000030C9000730C2008D
:100A88004208CA003C1C4E2D3F08C7074008C83D15
:100A98004108C93D0130BE36BD0CBC0C890B4F2D39
:100AA8000130BF35C00DC10D890B552D0130CA026B
:100AB800031D462D0930C2004208CA003C1C6A2D9D
:100AC8003F08C7074008C83D4108C93D0130BE3648
:100AD800BD0CBC0C890B6B2D0130C936C80CC70C7A
:100AE800890B712D0130CA02031D622D4708A00031
:100AF8004808A1004908A2004608C2004208A3000D
:100B08004B08C3004308A4008D318325200020082A
:100B1800BC002108BD002208BE00080020002F08E4
:100B2800B2003008B3003108B4000310330D340D9F
:100B3800B5003508BA003A08031DA92D0030AC00ED
:100B48000030AD000030AE0008002C08B2002D08BF
:100B5800B3002E08B4000310330D340DB50035086A
:100B6800BB003B08031DBF2D0030AC000030AD00BA
:100B78000030AE0008000030B7000030B800003088
:100B8800B90089303B07B2003208BA022F08B20018
:100B98003008B3003108B4001030B436B30CB20CCE
:100BA800890BD12D3208B5003508BB002C08B200DE
:100BB8002D08B3002E08B4001030B436B30CB20CB4
:100BC800890BE12D3208B5003508BB068030B2002C
:100BD8003208BB05B017FF30AF05FF30B005003055
:100BE800B105AD17FF30AC05FF30AD050030AE05DF
:100BF8001830B2003208B6000130B735B80DB90D5B
:100C0800890B012E2E083102031D102E2D083002EB
:100C1800031D102E2C082F02031C192E2C08AF02BE
:100C28002D08B03B2E08B13B37140130AF35B00D5D
:100C3800B10D890B1A2E0130B602031D002E37089C
:100C4800A0003808A1003908A2003A08B20032080A
:100C5800A3003B08B3003308A4008D31832520008E
:100C68002008AC002108AD002208AE0008002000D2
:100C7800E001E101C030AC004A30AD004430AE00C4
:100C88005B08A1005A08A0000A30A2000030A300A7
:100C980089312121863120002108A9002008A800D7
:100CA8008831DD20863120002808AF002908B000EF
:100CB8002A08B10085319225863120002C08DD00F4
:100CC8002D08DE002E08DF005D08BF005E08C000AA
:100CD8005F08C1000030BC002030BD004130BE00BC
:100CE8008431DE24863120003C08CC003D08CD004C
:100CF8003E08CE0087317827863120004D08E10074
:100D08004C08E0000A30A8000030A9006430A000B8
:100D18000030A1006108A3006008A2008A31BD224A
:100D2800863120002108AB002008AA008A3134222D
:100D3800863120002808DC005C08B90004308931BD
:100D48005B2186310A302000A8000030A9000A3053
:100D5800A0000030A1006108A3006008A2008A3149
:100D6800BD22863120002108AB002008AA008A3164
:100D780034228631200028088038DC005C08B9005D
:100D8800053089315B2186310A302000A800003007
:100D9800A9006108AB006008AA008A3134228631B4
:100DA80020002808DC005C08B900063089315B2186
:100DB800080026009315131593101310931313139B
:100DC80025001E08CF3910389E0020005B08E0007F
:100DD8005A08DF00DF35E00DDF35E00DDF0EE00EED
:100DE800F030E0055F080F39E004F030DF055F08F8
:100DF800A6006008A700A801A9010030AD003D3099
:100E0800AC000930AB000030AA008E31E4268631F0
:100E180020002608FF3E2800960016082000DF0064
:100E2800E001DF35E00DDF35E00D5F08043EA80086
:100E38000030603DA90089319C21863120002808B6
:100E4800BF002908C0002A08C1005C08AF005D087F
:100E5800B0005E08B1000030AC00C830AD004230D0
:100E6800AE0085319225863120002C08BC002D0863
:100E7800BD002E08BE008431DE24863120003C08E7
:100E8800CC003D08CD003E08CE008731782786315A
:100E980020004D08E2004C08E1006208E00061080B
:100EA800DF00E036DF0CE036DF0C5F08260091003B
:100EB800200061080139DF00DF0E2600130820003A
:100EC8005F06EF395F06260093002000610810399D
:100ED800DF00DF0EDF0D2600130820005F06DF3974
:100EE8005F0626009300080020004C08D0004D083B
:100EF800D1004E08D2000310510D520DD3005308F3
:100F0800D9005908031D912F0030CF000030CE00C2
:100F18000030CD000030CC0008004C08D0004D084F
:100F2800D1004E08D2001730D236D10CD00C890B24
:100F3800982F5008D3005308D400CD17FF30CC05A4
:100F4800FF30CD050030CE054C08D5004D08D60041
:100F58004E08D700D8018E30D902D91FCF2F590893
:100F6800803A8F3E0318C12F0030CF000030CE00EA
:100F78000030CD000030CC0008000130D836D70C46
:100F8800D60CD50C890BC22F0130D0005008D907D8
:100F98000319E82FC12F18305902031CE52F003020
:100FA800CF000030CE000030CD000030CC0008006B
:100FB8000130D535D60DD70DD80D890BDD2F013071
:100FC800D9025908031DDC2F54080319F62FD50937
:100FD800D609D709D809D50A0319D60A0319D70A91
:100FE8000319D80A5808CF005708CE005608CD0074
:060FF8005508CC000800C2
:1010000026009311131193101310280017110800D4
:101010002000A0002008860087018101810A0800C5
:101020002000B8008C316124200038082400910091
:1010300008002000B8008C31A324200038082400C8
:101040009900080000302100B4000030B3000030E7
:10105000B2000030B100080001302200A0000030D2
:10106000A1000130A9000030AA00080021009E174D
:101070001E11FC309E051E088F3960389E001D1021
:1010800008002000EF006F08063E86008701413F00
:101090008A00403F0A00883108002100951215128D
:1010A00095111508F8390238950083302000950015
:1010B0008B160B11080025001A08F0390C389A001D
:1010C00020001C08FC3902389C0087309C051C1548
:1010D0000800260093151315931013102800170805
:1010E000FC39023897008730970517150800C5307E
:1010F0009731F2278831003A031908002000A00137
:10110000A00AC5308831C8200800CD309731F227B9
:101110008831003A031908002000A001CD30883141
:10112000C82022000D160800200021082200A80077
:10113000200020082200A700200023082200B10080
:10114000200022082200B0000800BD309731F227AD
:101150008831003A031908002000A001A00ABD3020
:101160008831C82088318A318E2208002000A300EF
:10117000A201231CBF282008A1002108A2070310F8
:10118000A00D0310A30C2308031DB9282208080092
:101190002000A2002008A100220886008701210863
:1011A0008100220A8600870181012208043E860010
:1011B00087010030C03FC13F080020002808A00080
:1011C0002908A100A2018E30AB002B08A300A401C6
:1011D0008D31832520002008A8002108A9002208BD
:1011E000AA000800BD30883141208831C5308831DF
:1011F00041208831DD30883141208831CD3088313F
:1012000041208831D5308831412088316400F2286E
:10121000210034082000A700210033082000A60088
:10122000210032082000A500210031082000A40080
:101230002708A3002608A2002508A1002408A00072
:1012400008002000A401A501201C2A292208A407C7
:101250002308A53D0130A235A30D890B2B290130B0
:10126000A136A00C890B302920082104031D242954
:101270002508A1002408A000080020003708360433
:101280003504031945298030B7063808A800390805
:10129000A9003A08AA003508AB003608AC003708A8
:1012A000AD008131622120002808B5002908B60070
:1012B0002A08B70008002000BA009731D2278931E8
:1012C00000308831102089318B31E12389312000B1
:1012D0003A088831102089318B31E123893120008F
:1012E00039088831102089318B31E12389319731D8
:1012F000D72708002000A400240886008701810168
:10130000240A8600870181012408023E86008701A5
:101310002008C03F2108C13F2408043E8600870101
:101320000030C03FC13F2408063E860087012208E6
:10133000C03F2308C13F08002000AD01A91FA72915
:10134000A809A909A80A0319A90AAD01AD0A280824
:10135000A0002908A100A2018E30AB002B08A30039
:101360002D08AC002C08A4008D3183252000200816
:10137000A8002108A9002208AA0008002000BE0138
:10138000BE0A22000E148E142000BF01C0013F309F
:10139000BD003D08B90000308A31F2228931883120
:1013A000002089319731E62789312000A001D5300E
:1013B0008831C82022008F1190152100AC01200037
:1013C0003E08080020002008A8002108A9002208E3
:1013D000AA002308AB002409AC002509AD002609AA
:1013E000AE002709AF00AC0A0319AD0A0319AE0A13
:1013F0000319AF0A2C08A8072D08A93D2E08AA3DFD
:101400002F08AB3D2B08A3002A08A2002908A10041
:101410002808A00008002000A30021009E171E1627
:101420009E161E1320002308A200A20DA20D21006B
:101430001D08200022068339220621009D001D146C
:10144000F9302000A2000000A20B232A0032000085
:1014500021009D149D182A2A1C082000A1002100AB
:101460001B082000A00008002000280829040319F8
:101470005C2AAD01AD0AA91B472A0130A835A90D88
:10148000890B3E2A0130AC002C08AD073B2A290805
:101490002B02031D4D2A28082A02031C532A280860
:1014A000AA022908AB3B0130A936A80C890B542AA3
:1014B0000130AD02031D472A2B08A9002A08A80005
:1014C000080033302000BC007330BD004030BE0047
:1014D0005B08A9005A08A8008831DD208A31200065
:1014E0002808BF002908C0002A08C1008431DE2472
:1014F0008A3120003C08DC003D08DD003E08DE00AB
:101500005C08CC005D08CD005E08CE0087317827EE
:1015100020004D08DB004C08DA00080000302500F0
:101520008C1801302100E500003025000C18013036
:101530002100E60002302000ED006D082100E700E8
:1015400001302100E702670A031908006708E53E39
:101550008600870101082000ED006D08E7000930D2
:10156000EE006E08A000210067088831B6208A319D
:10157000203E8E3163268A31A02A2000A501A601D3
:10158000200821040319ED2AA701A70AA11BD22ACA
:101590000130A035A10D890BC92A0130A40024080F
:1015A000A707C62A0130A535A60D890BD32A210825
:1015B0002302031DDD2A20082202031CE42A20083E
:1015C000A2022108A33B25140130A136A00C890BEF
:1015D000E52A0130A702031DD22A2608A10025080A
:1015E000A00008002000BC009731DC278A31C03001
:1015F000883119208A318C3121248A3120003C081D
:10160000BA000230BA35FF3E031D022B3A35F839D5
:10161000883119208A318C3121248A3120003908FF
:1016200086008701403FBA00413FBB003B0888313C
:1016300019208A318C3121248A3120003908860012
:1016400087010108883119208A318C3121248A319F
:101650009731E12708002000A21F422B2009A60095
:101660002109A7002209A800A60A0319A70A03193D
:10167000A80A00302607A0000030273DA1008030D6
:10168000283DA200A51F582B2309A6002409A70066
:101690002509A800A60A0319A70A0319A80A0030F9
:1016A0002607A3000030273DA4008030283DA50078
:1016B0008030A2068030A50625082202031D0800FE
:1016C00024082102031D080023082002080024002A
:1016D0009417141795169515151195101510960158
:1016E000E8302000A2000330A3003608B800350817
:1016F000B700B735B80DB735B80D3708A0003808B2
:10170000A100893121218B3120002008B900210856
:10171000BA00BB01BC013C08A9003B08A8003A087C
:10172000A7003908A6000030AD003D30AC000930FC
:10173000AB000030AA008E31E42620002608FF3ED0
:10174000240092009401080024009C171C179D1689
:101750009D151D119D101D109E01E8302000A20056
:101760000330A3003608B8003508B700B735B80D08
:10177000B735B80D3708A0003808A10089312121FC
:101780008B3120002008B9002108BA00BB01BC0140
:101790003C08A9003B08A8003A08A7003908A600A1
:1017A0000030AD003D30AC000930AB000030AA0085
:1017B0008E31E42620002608FF3E24009A009C017A
:1017C000080000302000B7000030B6000030B5003F
:1017D0000030B400883122208B312400161E1D2CCD
:1017E000893108218B3120002308B3002208B20080
:1017F0002108B1002008B0003308A3003208A2007D
:101800003108A1003008A0003708A7003608A6005C
:101810003508A5003408A4008931E2218B3120006D
:101820002308031D1D2C2208031D1D2C2108031D48
:101830001D2C0B302002031CED2B240096121616D3
:10184000080000302000B7000030B6000030B500BE
:101850000030B400883122208C3124001E1E5D2C03
:10186000893108218C3120002308B3002208B200FE
:101870002108B1002008B0003308A3003208A200FC
:101880003108A1003008A0003708A7003608A600DC
:101890003508A5003408A4008931E2218C312000EC
:1018A0002308031D5D2C2208031D5D2C2108031D48
:1018B0005D2C0B302002031C2D2C24009E121E16C2
:1018C000080000302000B7000030B6000030B5003E
:1018D0000030B400883122208C31240016081F39D2
:1018E0000319A02C893108218C3120002308B30072
:1018F0002208B2002108B1002008B0003308A3007C
:101900003208A2003108A1003008A0003708A70063
:101910003608A6003508A5003408A4008931E22164
:101920008C3120002308031D08002208031D080035
:101930002108031D08000B302002031808006D2C3D
:10194000141D0800722C00302000B7000030B600D3
:101950000030B5000030B400883122208C312400E2
:101960001E081F390319E22C893108218C3120000F
:101970002308B3002208B2002108B1002008B000FB
:101980003308A3003208A2003108A1003008A000EB
:101990003708A7003608A6003508A5003408A400BB
:1019A0008931E2218C3120002308031D0800220820
:1019B000031D08002108031D08000B302002031836
:1019C0000800AF2C1C1D0800B42CFC302100990528
:1019D0001908873968389900951320008C01220076
:1019E0008C013E3023008C00FF3021008C00200051
:1019F0008D0122008D01843024008D00AE30210045
:101A00008D0020008E01033022008E00F83021006E
:101A10008E0020008F0122008F01E43021008F0012
:101A200020009001220090012300900170302100DD
:101A3000900025008C0127008C0128008C01833048
:101A400026008C0025008D0127008D011C3026000A
:101A50008D0028008D0129008D0108002000E4017F
:101A6000E40A21002C08031D802D25082000DB003E
:101A7000210024082000DA008A3161228D31200003
:101A80005B08E6005A08E5006530E3006308B9002A
:101A900000308A31F2228D31E8302000DA00033044
:101AA000DB000030DC004830DD004230DE008631F3
:101AB000DD268D31883169208D3100302100AD0067
:101AC000A030AE004030AF00E8302000DA00033034
:101AD000DB000030DC000030DD000030DE008F3144
:101AE00066278D3188315B208D31D53088310820D3
:101AF00022008F1590110E108E102100AC01AC0A3F
:101B00002000640808002000230803198C2D2208F7
:101B100021042004031D9D2D0030A0000030A100F1
:101B20000030A20008000130A5002508A3070130FD
:101B3000A236A10CA00C890B982DFE3022050319AA
:101B4000B62D932D0130A5002508A3070130A0076D
:101B5000003003180130A107003003180130A2073C
:101B60000130A236A10CA00C890BB12DFF3022054B
:101B70000319C32DA22D0130A3020130A035A10D00
:101B8000A20D890BBE2DA11BC92D02302302031803
:101B9000BB2D2318D12DFF30A0057F30A105FF30CC
:101BA000A2050310A30C2308A500A601A70110306D
:101BB000A535A60DA70D890BD82D2508A00426084C
:101BC000A1042708A204240803190800A21708008A
:101BD000F900FA0170087A02031808007A08F10087
:101BE0000230F135FF3E031DF12D71357907F2000A
:101BF000720886008701010803195E2E7A08F10039
:101C00000230F135FF3E031D012E71357907F200D8
:101C10007208023E86008701403FF300413FF40016
:101C20007A08F5000230F535FF3E031D132E753599
:101C30007907F6007608043E86008701403FF700EA
:101C4000413FF80074087802031D282E73087702BC
:101C500003183E2E7A08F1000230F135FF3E031DD5
:101C60002D2E71357907F2007208043E8600870137
:101C70000130810741310318810A5E2E7A08F10094
:101C80000230F135FF3E031D412E71357907F20018
:101C90007208043E860087010030C03FC13F7A08C9
:101CA000F1000230F135FF3E031D522E71357907E8
:101CB000F200720A860087018101810A0130F10079
:101CC0007108FA07EA2D2000EC006C08053E86003A
:101CD000013087000310810D67080319CF2E6C08AF
:101CE000053E86000130870001146C08043E860022
:101CF000013087000108031DC32E6C0886000130E7
:101D00008700403FE800413FE9006C08023E860042
:101D100001308700403FEA00413FEB0069086B0259
:101D2000031D942E68086A02031CC32E6C08043E2F
:101D30008600013087008101810A6C08063E86001A
:101D4000013087000108031DC32E6C08073E860082
:101D500001308700160001040319C32E6C08073EEA
:101D6000860001308700413F8A00403F0A008E31E3
:101D7000003A0319C32E20006C08063E860001308D
:101D800087008101810A20006C08023E8600013034
:101D900087000130810741310318810A08006C086F
:101DA000043E86000130870081016C08063E8600F3
:101DB0000130870081016C08023E860001308700F7
:101DC0000030C03FC13F08002000B001A91FF52E20
:101DD000A609A709A809A909A60A0319A70A0319A8
:101DE000A80A0319A90AB001B00AAD1F062FAA0953
:101DF000AB09AC09AD09AA0A0319AB0A0319AC0A6D
:101E00000319AD0A0130AE002E08B0060030B40050
:101E10000030B3000030B2000030B10029082804BF
:101E20002704260403194F2FAF01AF0AA91B242F43
:101E30000130A635A70DA80DA90D890B192F01306A
:101E4000AE002E08AF07162F0130B135B20DB30D1D
:101E5000B40D890B252F29082D02031D392F2808C1
:101E60002C02031D392F27082B02031D392F2608AA
:101E70002A02031C442F2608AA022708AB3B280885
:101E8000AC3B2908AD3B31140130A936A80CA70C96
:101E9000A60C890B452F0130AF02031D242F3008FB
:101EA00003195D2FB109B209B309B409B10A0319C5
:101EB000B20A0319B30A0319B40A3408A900330893
:101EC000A8003208A7003108A60008003F3025000E
:101ED0009A051A08F0390C389A00F3309E05200054
:101EE000911422001D1520005B08E0005A08DF0055
:101EF000DF35E00DDF35E00DDF0EE00EF030E00500
:101F00005F080F39E004F030DF055F08A6006008C5
:101F1000A700A801A9010030AD003D30AC00093098
:101F2000AB000030AA008E31E4268F312000260855
:101F3000FF3E9B001B08DF00E001DF35E00DDF35D1
:101F4000E00D5F08043EA8000030603DA900893123
:101F50009C218F3120002808BF002908C0002A08D2
:101F6000C1005C08AF005D08B0005E08B100003041
:101F7000AC00C830AD004230AE00853192258F31C3
:101F800020002C08BC002D08BD002E08BE008431A6
:101F9000DE248F3120003C08CC003D08CD003E08F7
:101FA000CE00873178278F3120004D08E2004C08A1
:101FB000E1006208E0006108DF00E036DF0CE03697
:101FC000DF0C5F0825009800200061080139DF0060
:101FD000DF0E25001A0820005F06EF395F06250096
:101FE0009A00200061081039DF00DF0EDF0D2500A8
:101FF0001A0820005F06DF395F0625009A000800F6
:102FA4008C3161242400161408008C31612424001F
:102FB400161508008C31A32424001E1408008C313B
:102FC400A32424001E150800F03025009A052000D3
:102FD4001C110800640080010131890BED2F0034BD
:102FE4002000A000200A860087010108080084311F
:0C2FF400082497318831F2208031242815
:020000040001F9
:04000E00A4CFFFFF7D
:00000001FF
